{
  "contractName": "Auction",
  "abi": [
    {
      "inputs": [],
      "stateMutability": "nonpayable",
      "type": "constructor"
    },
    {
      "inputs": [],
      "name": "highestBid",
      "outputs": [
        {
          "internalType": "uint256",
          "name": "",
          "type": "uint256"
        }
      ],
      "stateMutability": "view",
      "type": "function",
      "constant": true
    },
    {
      "inputs": [],
      "name": "highestBidder",
      "outputs": [
        {
          "internalType": "address",
          "name": "",
          "type": "address"
        }
      ],
      "stateMutability": "view",
      "type": "function",
      "constant": true
    },
    {
      "inputs": [
        {
          "internalType": "address",
          "name": "",
          "type": "address"
        }
      ],
      "name": "userBalances",
      "outputs": [
        {
          "internalType": "uint256",
          "name": "",
          "type": "uint256"
        }
      ],
      "stateMutability": "view",
      "type": "function",
      "constant": true
    },
    {
      "stateMutability": "payable",
      "type": "receive",
      "payable": true
    },
    {
      "inputs": [],
      "name": "getContractBalance",
      "outputs": [
        {
          "internalType": "uint256",
          "name": "",
          "type": "uint256"
        }
      ],
      "stateMutability": "view",
      "type": "function",
      "constant": true
    },
    {
      "inputs": [],
      "name": "bid",
      "outputs": [],
      "stateMutability": "payable",
      "type": "function",
      "payable": true
    },
    {
      "inputs": [],
      "name": "withdraw",
      "outputs": [],
      "stateMutability": "nonpayable",
      "type": "function"
    }
  ],
  "bytecode": "0x608060405234801561001057600080fd5b50336000806101000a81548173ffffffffffffffffffffffffffffffffffffffff021916908373ffffffffffffffffffffffffffffffffffffffff1602179055506000600181905550610727806100686000396000f3fe6080604052600436106100595760003560e01c80631998aeef1461006557806326224c641461006f5780633ccfd60b146100ac5780636f9fb98a146100c357806391f90157146100ee578063d57bde791461011957610060565b3661006057005b600080fd5b61006d610144565b005b34801561007b57600080fd5b5061009660048036038101906100919190610447565b61025f565b6040516100a39190610572565b60405180910390f35b3480156100b857600080fd5b506100c1610277565b005b3480156100cf57600080fd5b506100d8610400565b6040516100e59190610572565b60405180910390f35b3480156100fa57600080fd5b50610103610408565b60405161011091906104f7565b60405180910390f35b34801561012557600080fd5b5061012e61042c565b60405161013b9190610572565b60405180910390f35b6001543411610188576040517f08c379a000000000000000000000000000000000000000000000000000000000815260040161017f90610512565b60405180910390fd5b34600260003373ffffffffffffffffffffffffffffffffffffffff1673ffffffffffffffffffffffffffffffffffffffff168152602001908152602001600020546101d3919061059e565b600260003373ffffffffffffffffffffffffffffffffffffffff1673ffffffffffffffffffffffffffffffffffffffff1681526020019081526020016000208190555034600181905550336000806101000a81548173ffffffffffffffffffffffffffffffffffffffff021916908373ffffffffffffffffffffffffffffffffffffffff160217905550565b60026020528060005260406000206000915090505481565b60008054906101000a900473ffffffffffffffffffffffffffffffffffffffff1673ffffffffffffffffffffffffffffffffffffffff163373ffffffffffffffffffffffffffffffffffffffff161415610306576040517f08c379a00000000000000000000000000000000000000000000000000000000081526004016102fd90610552565b60405180910390fd5b3373ffffffffffffffffffffffffffffffffffffffff166108fc600260003373ffffffffffffffffffffffffffffffffffffffff1673ffffffffffffffffffffffffffffffffffffffff168152602001908152602001600020549081150290604051600060405180830381858888f193505050506103b9576040517f08c379a00000000000000000000000000000000000000000000000000000000081526004016103b090610532565b60405180910390fd5b6000600260003373ffffffffffffffffffffffffffffffffffffffff1673ffffffffffffffffffffffffffffffffffffffff16815260200190815260200160002081905550565b600047905090565b60008054906101000a900473ffffffffffffffffffffffffffffffffffffffff1681565b60015481565b600081359050610441816106da565b92915050565b60006020828403121561045957600080fd5b600061046784828501610432565b91505092915050565b610479816105f4565b82525050565b600061048c60208361058d565b91506104978261065f565b602082019050919050565b60006104af60208361058d565b91506104ba82610688565b602082019050919050565b60006104d260148361058d565b91506104dd826106b1565b602082019050919050565b6104f181610626565b82525050565b600060208201905061050c6000830184610470565b92915050565b6000602082019050818103600083015261052b8161047f565b9050919050565b6000602082019050818103600083015261054b816104a2565b9050919050565b6000602082019050818103600083015261056b816104c5565b9050919050565b600060208201905061058760008301846104e8565b92915050565b600082825260208201905092915050565b60006105a982610626565b91506105b483610626565b9250827fffffffffffffffffffffffffffffffffffffffffffffffffffffffffffffffff038211156105e9576105e8610630565b5b828201905092915050565b60006105ff82610606565b9050919050565b600073ffffffffffffffffffffffffffffffffffffffff82169050919050565b6000819050919050565b7f4e487b7100000000000000000000000000000000000000000000000000000000600052601160045260246000fd5b7f546865726520697320612068696768657220626964207468616e20796f757273600082015250565b7f436f756c64206e6f742073656e642074686520616d6f756e74206f6620626964600082015250565b7f596f752063616e206e6f74207769746864726177000000000000000000000000600082015250565b6106e3816105f4565b81146106ee57600080fd5b5056fea2646970667358221220f64604947ba5777ec022b82f224806b4e87a110efa5eef2ddc0fe397256ccf2d64736f6c63430008030033",
  "immutableReferences": {},
  "source": " //SPDX-License-Identifier: GPL-3.0\n\npragma solidity >=0.7.0 <0.8.4;\n\ncontract Auction {\n    \n    address public highestBidder; // The highest bidder's address\n    uint public highestBid; // The amount of the highest bid\n    \n    \n    mapping(address => uint) public userBalances; // mapping for the amount to return\n    \n    modifier greaterBid(){\n        require(msg.value > highestBid,\"There is a higher bid than yours\");\n        _;\n    }\n    \n    modifier onlyBidder(){\n        require( msg.sender!= highestBidder,\"You can not withdraw\");\n        _;\n    }\n    \n    constructor() {\n    // contractor\n    // 1. Initialize highest bid and the bidder's address\n        highestBidder= msg.sender;\n        highestBid=0;\n    }\n    \n    function getContractBalance() public view returns(uint){\n        return address(this).balance;\n    }\n    \n    function bid() public greaterBid payable{\n    // Function to process bid\n    // 1. Check if the bid is greater than the current highest bid\n    // 2. Update status variable and the amount to return\n        \n        userBalances[msg.sender]= userBalances[msg.sender] + msg.value;\n        highestBid = msg.value;\n        highestBidder = msg.sender;\n        \n    }\n    function withdraw() public onlyBidder  {\n    // Function to withdraw the amount of bid to return\n    // 1. Check if the amount to return is greater than zero\n    // 2. Update status variable and return bid  \n        require(payable(msg.sender).send(userBalances[msg.sender]),\"Could not send the amount of bid\");\n        userBalances[msg.sender]=0;\n    }\n    \n    receive() external payable{}\n\n}\n",
  "sourcePath": "/home/user/dapp/contracts/Auction.sol",
  "compiler": {
    "name": "solc",
    "version": "0.8.3+commit.8d00100c.Emscripten.clang"
  },
  "schemaVersion": "3.4.1",
  "updatedAt": "2021-05-31T21:24:10.744Z",
  "networkType": "ethereum",
  "devdoc": {
    "kind": "dev",
    "methods": {},
    "version": 1
  },
  "userdoc": {
    "kind": "user",
    "methods": {},
    "version": 1
  }
}